:020000040000FA
:02000000F62FD9
:100E58007430831603138F00C930831203139F0065
:100E68008030831603139F0032308600FF308500E0
:100E78002430831203139400403083160313940024
:100E88008312031306108611C93083129F001F15A1
:100E98001F194F2F502F4C2F1E08FC00FD017C08F6
:100EA800F6007D08F700831603131E08FC00FD01F9
:100EB8007C08F4007D08F500C130831203139F00FD
:100EC8001F151F19682F692F652F1E08FC00FD01CB
:100ED8007C08F2007D08F300831603131E08FC004B
:100EE800FD017C08F0007D08F10014187C2F7D2F8F
:100EF800F22F141C802F812F7D2F9830831203131B
:100F08001306031D882F892FB02F760893008316A8
:100F18000313141C902F912F8B2F74088312031323
:100F2800930083160313141C9A2F9B2F952F720876
:100F380083120313930083160313141CA42FA52FE5
:100F48009F2F700883120313930083160313141C36
:100F5800AE2FAF2FA92F482F5F301306031DB52FD3
:100F6800B62FC12F06148611AF30930083160313D2
:100F7800141CBF2FC02FBA2F482F50301306031D43
:100F8800C62FC72FD12F0610A03093008316031346
:100F9800141CCF2FD02FCA2F482F7F301306031DC4
:100FA800D62FD72FE22F06108615BF309300831651
:100FB8000313141CE02FE12FDB2F482F703013068A
:100FC800031DE72FE82FF22F8611B0309300831608
:100FD8000313141CF02FF12FEB2F482F83129301CA
:100FE800482F0028F001F101F201F301F401F501A5
:080FF800F601F70183012C2F23
:02400E00383F39
:00000001FF
